:100000000C9434000C943E000C943E000C943E0082
:100010000C943E000C943E000C943E000C943E0068
:100020000C943E000C943E000C943E000C943E0058
:100030000C943E000C943E000C943E000C943E0048
:100040000C943E000C943E000C943E000C943E0038
:100050000C943E000C943E000C943E000C943E0028
:100060000C943E000C943E0011241FBECFEFD8E04C
:10007000DEBFCDBF0E9471000C949D000C94000067
:100080000F931F93CF93DF9300D000D0CDB7DEB78F
:100090009B01AC01A6E9B0E00E94830019821A829C
:1000A0001B821C8209811A812B813C81061717074C
:1000B000280739076CF409811A812B813C810F5F75
:1000C0001F4F2F4F3F4F09831A832B833C83EACF67
:1000D0000F900F900F900F90DF91CF911F910F9184
:1000E000089582E284B9C2E2C5B968EE73E080E0A7
:1000F00090E00E94400015B868EE73E080E090E068
:100100000E944000F1CF0E948E00A59F900DB49FE9
:10011000900DA49F800D911D11240895A29FB00100
:10012000B39FC001A39F700D811D1124911DB29F2B
:0E013000700D811D1124911D0895F894FFCFCC
:00000001FF
