:100000004AC1000066C1000064C1000062C1000076
:1000100060C100005EC100005CC100005AC1000068
:1000200058C1000056C1000054C1000052C1000078
:1000300050C100004EC100000BC200004AC10000C8
:1000400048C1000046C10000B2C1000042C100002A
:1000500040C100003EC100003CC100003AC10000A8
:1000600038C1000036C100000C944B010C946901AA
:100070000C9469010C9469010C9469010C94690158
:100080000C9469010C9469010C9469010C94690148
:100090000C9469010C9469010C9469010C94690138
:1000A0000C9428020C9469010C9469010C94690168
:1000B0000C94D7010C9469010C9469010C946901AA
:1000C0000C9469010C9469010C9469010C94690108
:1000D0000000000000000000434F4E534F4C45000D
:1000E0000000200820082008200820081E082008FA
:1000F00020081E0800001E0800010000000100008A
:10010000004E554C4C444556000000200820082065
:1001100008200820081E08200820081E0800001ECD
:10012000080002000000000000004E414D45535001
:1001300041434500380DE00E1E081E081E081E082B
:100140001E081E081E0800001E08006E616D696E04
:100150006974202864657669636573293A0D0A001D
:100160004552524F522047455453544B2025730A51
:10017000006E616D6573706163653A2064657669D0
:100180006365206E616D6520257320746F6F206C30
:100190006F6E670D0A006E616D6573706163653A1D
:1001A0002063616E6E6F74206D6F756E74202564B0
:1001B0000D0A000A0A416C6C20757365722070721A
:1001C0006F636573736573206861766520636F6D17
:1001D000706C657465642E0A0A000A57656C636F5B
:1001E0006D6520746F2058696E75210A0A0D0958D3
:1001F000696E75204F5320436F7079726967687418
:100200002028632920323031322C20323031350A17
:100210000D09446F75676C617320452E20436F6D27
:10022000657220616E64204352432050726573737F
:100230002C20496E632E0A0A0D0958696E75204FED
:100240005320666F72204156522061746D6567615C
:10025000333238702076302E312028632920323016
:1002600032300A0D0952616661656C2049676E6122
:1002700063696F205A7572697461203C72616661AE
:100280004066692E756E636F6D612E6564752E61B3
:10029000723E0A0A0D0011241FBECFEFD8E0DEBF68
:1002A000CDBF11E0A0E0B1E0EAEAF6E202C00590BD
:1002B0000D92A236B107D9F724E0A2E6B1E001C061
:1002C0001D92A030B207E1F70C9457060E940E0F62
:1002D000FFC296CEFF93EF93FC0100820FB6F89415
:1002E00004A21182228233824482558266827782FE
:1002F00080869186A286B386C486D586E686F786F2
:10030000008B118B228B338B448B558B668B778BB9
:10031000808F918FA28FB38FC48FD58F0F90068E51
:100320000F90078E0DB600A20EB601A2FB0100A031
:100330000DBE01A00EBE078C0F92068C0F92D58DBC
:10034000C48DB38DA28D918D808D778966895589F5
:1003500044893389228911890089F784E684D58408
:10036000C484B384A284918480847780668055801D
:10037000448033802280118004A00FBE0080EF9162
:10038000FF910895E0910001F0910101158289E14A
:10039000848386E0828388E181830895E09100016F
:1003A000F0910101908195FFFDCF868308951F9202
:1003B0000F920FB60F9211248F938091C6008093F5
:1003C00068018F910F900FBE0F901F901895A4E0B9
:1003D000B0E0EDEEF1E00C94261019821A821B8237
:1003E0001C8219821A821B821C8209811A812B812C
:1003F0003C81061717072807390770F400000981A8
:100400001A812B813C810F5F1F4F2F4F3F4F098374
:100410001A832B833C83E9CF2496E4E00C944210AA
:1004200080E284B92D9A60E47DE083E090E0CFDF44
:100430002D9860E47DE083E090E0C9CF10929101B7
:1004400010929201109293011092940181E008950C
:100450001F920F920FB60F9211242F933F934F9339
:100460005F936F937F938F939F93AF93BF93EF931C
:10047000FF9380919B0190919C01A0919D01B0916F
:100480009E010196A11DB11D80939B0190939C013B
:10049000A0939D01B0939E01883E9340A105B105B4
:1004A000D8F080919F019091A001A091A101B091FD
:1004B000A2010196A11DB11D80939F019093A001FF
:1004C000A093A101B093A20110929B0110929C01F4
:1004D00010929D0110929E0180919501909196013C
:1004E00026E0289FF001299FF00D1124E35CFC4FCA
:1004F000828193818430910584F4289FF001299FA3
:10050000F00D1124E35CFC4F808191810197918370
:100510008083892B11F40E941A0C8091970190918D
:100520009801A0919901B0919A010197A109B1098F
:1005300049F08093970190939801A0939901B0930B
:100540009A010DC081E090E0A0E0B0E080939701B7
:1005500090939801A0939901B0939A0175D7FF9158
:10056000EF91BF91AF919F918F917F916F915F912B
:100570004F913F912F910F900FBE0F901F901895A4
:10058000A3D6909396018093950181E090E0A0E03E
:10059000B0E08093970190939801A0939901B09354
:1005A0009A0110929F011092A0011092A101109245
:1005B000A20110929B0110929C0110929D01109239
:1005C0009E0185B5836085BD84B5826084BD8FE35F
:1005D00087BDEEE6F0E08081826080830895CF924F
:1005E000DF92EF92FF92CF93DF936B017C011ED5D8
:1005F000D82F83E0C816D104E104F10420F08D2F38
:1006000018D5CFEF11C029E22C9DC0012D9D900D72
:10061000112480539F4FFC0176960590F491E02DB4
:100620000995C82F8D2F05D58C2FDF91CF91FF9085
:10063000EF90DF90CF900895A6E0B0E0E2E2F3E023
:100640000C9418102B8D29838C8CED8CFE8C09A1B9
:100650003AA13E83EBD4982E40E4E416F1041CF456
:1006600070E4E72EF12C83E0E80EF11C9CEFE92208
:1006700027010F2C000C66087708C301B20169D26C
:100680001C01019679F480E691E00E94530C892DBB
:10069000D0D4FFEFFA832FEF2B833FEF3C834FEF54
:1006A0004D8309C130916201209163018091640101
:1006B00090916501A12CB12C1BE5632F722F24E0D2
:1006C00030E040E050E00E94F20F6B017C016A8351
:1006D000DB82EC82FD82169FF001179FF00D112442
:1006E000E955FE4F80819181B701A6014F5F5F4FB1
:1006F0006F4F7F4F892B79F44093620150936301D0
:1007000060936401709365018FEFC816D806E80600
:10071000F806A1F4B8CF342F252FCB01EFEFAE1A96
:10072000BE0AF4E0AF16B10441F640936201509363
:1007300063016093640190936501A5CF2F8D38A16B
:10074000121613060CF09FCF80911303909114039F
:10075000A0911503B09116030196A11DB11D8093C0
:10076000130390931403A0931503B093160385E02D
:1007700090E0918380833383228331AE20AE42AEFA
:1007800053AE64AE75AEDF01AB5BBF4F1C92A02FC2
:10079000BE818F0180E090E02D91F801E80FF91FF4
:1007A00026AF222321F0019687309105A9F72BE58A
:1007B0002C9DC0012D9D900D1124FC01E955FE4F8B
:1007C0005F01EA5BFF4F8FEF9FEF91838083B8D18A
:1007D000F501E85BFF4F60837183828393833896D2
:1007E00010823196118210823296118210823296D6
:1007F000118210828AEAF10180838BA19CA1F5010C
:1008000093A782A720E030E0F801E20FF31F1482E3
:100810002F5F3F4F26323105B9F72BE52C9DF001B4
:100820002D9DF00D1124E955FE4F298124AB85AA99
:1008300026A387A220E820A7DE01959620E030E0DD
:100840002817390764F44D915D91F901EE0FFF1FF0
:10085000E00FF11F55A744A72F5F3F4FF1CFFC01D9
:100860007696EE0FFF1F4BE54C9D90014D9D300D90
:100870001124E20FF31FE955FE4F11821082F90196
:10088000E955FE4F848F958F2D523E4F228F338F27
:1008900088E19CE0D10111978C9311979C9311975B
:1008A00039813C9311978C9245E0241A310824A297
:1008B00035A2892DBED36A817B818C819D8126964C
:1008C000E2E10C94341061E070E080E090E0089583
:1008D00037D1B8C3A0E0B0E0E0E7F4E00C941E101C
:1008E000EC016A017B01A2D3C114D104E104F1043B
:1008F00009F447C02091390330913A03C217D30756
:1009000008F43FC020913B0330913C032C173D0776
:10091000C0F197E0C90ED11CE11CF11C98EFC9226F
:10092000A601DD0C660B770BE0913303F0913403E5
:10093000A3E3B3E0309741F0EC17FD0740F5DF018A
:100940000190F081E02DF6CF93E0A333B907D1F108
:100950001296CD90DD90ED90FC9015978D010B2EA9
:10096000000C220B330B0C0D1D1D2E1D3F1D6E01A7
:100970000D2E000CEE08FF08C016D106E206F306A5
:1009800018F457D38FEF82C0309741F41EC093E024
:10099000A333B907E9F600E010E098016E010D2ECF
:1009A000000CEE08FF08C40ED51EE61EF71E4F0110
:1009B0000F2E000CAA08BB088C149D04AE04BF04C3
:1009C00020F4DFCF00E010E09801C0903503D09014
:1009D0003603E0903703F0903803C40ED51EE61EB0
:1009E000F71EC0923503D0923603E0923703F0929F
:1009F00038036E010D2E000CEE08FF08C016D1065C
:100A0000E206F30691F412960D911D912D913C9101
:100A10001597400F511F621F731F12964D935D93E0
:100A20006D937C931597ED0108C0F983E8834A83A1
:100A30005B836C837D83CD93DC934A815B816C8186
:100A40007D818E010D2E000C220B330B040F151F20
:100A5000261F371F6F010F2E000CEE08FF080C1524
:100A60001D052E053F0581F4028113812481358106
:100A7000400F511F621F731F4A835B836C837D830A
:100A80002081318139832883D4D281E0CDB7DEB78C
:100A9000ECE00C943A1026E0AC01249FC001259FA5
:100AA000900D1124FC01E35CFC4F428153814430E2
:100AB00051051CF5BA01052E000C880B990B249FDB
:100AC000F001259FF00D1124E35CFC4FA281B3815E
:100AD00044815581249FF001259FF00D1124E35C92
:100AE000FC4FB383A2832A9FF0012B9FF00D1124AA
:100AF000E35CFC4F5583448308956FEF7FEFCB0198
:100B0000089546E0469FF001479FF00D1124E35CF5
:100B1000FC4FA281B38124813581429FF001439F24
:100B2000F00D1124E35CFC4FB383A2834A9FF001D4
:100B30004B9FF00D1124E35CFC4F35832483089513
:100B40006091A3017091A4018091A5019091A601EB
:100B50000895A0E0B0E0EFEAF5E00C9422106B01FC
:100B60007C0164D2C114D104E104F10449F197E09D
:100B7000C90ED11CE11CF11C98EFC9220D2C000CF0
:100B8000EE08FF08E0913303F0913403A0E0B0E0F9
:100B9000C0E0D0E023E333E0309781F0428153811D
:100BA000648175814C155D056E057F0510F0D901D6
:100BB000EF019F010190F081E02DEECF209721F40D
:100BC00038D28FEF9FEF41C00A811B812C813D817C
:100BD000C016D106E206F30629F4288139812D9347
:100BE0003C9311C00C191D092E093F090A831B8370
:100BF0002C833D83AE01DD0F660B770B040F151FB1
:100C0000261F371FE801409135035091360360914C
:100C10003703709138034C195D096E097F094093C1
:100C2000350350933603609337037093380301D232
:100C3000D701C6010497A109B109AE01DD0F660B0A
:100C4000770B840F951FA61FB71FCDB7DEB7E8E05F
:100C50000C943E10CF92DF92EF92FF92CF93DF93EE
:100C60006B017C01E3D1D82F83E0C816D104E104E5
:100C7000F10420F08D2FDDD1CFEF11C029E22C9DA2
:100C8000C0012D9D900D112480539F4FFC01729641
:100C90000590F491E02D0995C82F8D2FCAD18C2F86
:100CA000DF91CF91FF90EF90DF90CF90089577D3B1
:100CB00088E091E09F938F93A5D28AED91E0F3D5E0
:100CC000CCD21092130310921403109215031092B9
:100CD000160310929F031092A0031092A10310928A
:100CE000A203E7EAF1E00F900F901182108216AE96
:100CF00011AE10AE13821282E55AFF4F83E0E3314A
:100D0000F80799F7C7E1D3E003E313E018821982EB
:100D10001A821B821C82D8D29E838D8327960C1741
:100D20001D07A1F78BDBD0D290939E0380939D0388
:100D300060E070E0CB018EDF61E070E080E090E089
:100D400089DF62E070E080E090E084DF19DCE09110
:100D50003303F091340380E090E0DC01309761F0E0
:100D60004281538164817581840F951FA61FB71F2F
:100D70000190F081E02DF2CFBF93AF939F938F93BB
:100D800086E191E09F938F933DD21F921F921F9215
:100D90001F928CE291E09F938F931F928AE08F9332
:100DA0001F9280E48F931F921F9246DC2BE5269FB3
:100DB000F001279FF00D1124E955FE4F81E090E0EE
:100DC0009183808338D11F921F921F921F9282E3DA
:100DD00091E09F938F931F9284E18F9381E08F9393
:100DE0001F928EE09FE09F938F9326DCFED38DB7FA
:100DF0009EB74E960FB6F8949EBF0FBE8DBFFFCF25
:100E00001F93CF93DF93FA0134973B9708F054C0B8
:100E1000643071058105910508F04EC03BE5369FB1
:100E2000F001379FF00D1124E955FE4F0190F0813C
:100E3000E02DEF2B09F440C036E0349FF001359FE0
:100E4000F00D1124E35CFC4F42815381022E000C13
:100E5000330BC6E016E0C49FF001C59FF00D1124CE
:100E6000E35CFC4FA081B181A217B30718F0428167
:100E70005381F0CFC481D581169FD001179FB00D4B
:100E80001124A35CBC4F13965C934E931297159656
:100E9000DC93CE9314972D933C931C9FD0011D9F00
:100EA000B00D1124A35CBC4F13967C936E931297E4
:100EB0007583648381E001C08FEFDF91CF911F9133
:100EC00008954F925F926F927F928F929F92AF920E
:100ED000BF92CF92DF92EF92FF92CF93DF9300D039
:100EE00000D0CDB7DEB76B017C01CA0104970B9728
:100EF00008F088C084E0C816D104E104F10408F0C9
:100F000081C08BE58C9DF0018D9DF00D1124E9557C
:100F1000FE4F80819181892B09F474C04A01052E0E
:100F2000000CAA08BB0886E0849FF001859FF00DA5
:100F30001124E35CFC4F82819381092E000CAA0BE3
:100F4000BB0B4F5F5F4F2A01550F66087708498238
:100F50005A826B827C8266E049805A806B807C80FA
:100F600084159505A605B70569F566E06C9DF00149
:100F70006D9DF00D1124E35CFC4F538242829582FB
:100F8000848231832083689DA001699D500D1124C6
:100F9000FA01E35CFC4FD382C282649DF001659D3F
:100FA000F00D1124E35CFC4FD582C48284159505B5
:100FB000A605B70529F180819181821B930B91834E
:100FC00080831EC0689FF001699FF00D1124E35CCF
:100FD000FC4F408151812417350758F0241B350BF5
:100FE000428153814C015D01CA01550FAA0BBB0B15
:100FF000B3CF2C013D0189819A81AB81BC81B5CFF2
:1010000081E001C08FEF0F900F900F900F90DF9154
:10101000CF91FF90EF90DF90CF90BF90AF909F90D7
:101020008F907F906F905F904F9008958FB7F89456
:1010300008958FBF089578940895FFCF8FEF089596
:1010400081E00895AF92BF92CF92DF92EF92FF922C
:101050001F93CF93DF936B017C01E8DF182F84E0AF
:10106000C816D104E104F10488F48BE58C9DF001ED
:101070008D9DF00D1124E955FE4F80819181892BC2
:1010800029F0C114D104E104F10421F4812FD1DF4E
:101090008FEF9DC08091130390911403A0911503CD
:1010A000B09116030197A109B1098093130390939E
:1010B0001403A0931503B09316030297A105B1057D
:1010C0000CF4E4D38BE58C9D50018D9DB00C112464
:1010D000F501E151FE4F6081718182819381A70109
:1010E0009601B8D2C0E0D0E0FE01EA0DFB1DE85049
:1010F000FE4F60817181072E000C880B990B6FDA0F
:101100002296C630D10581F78BE58C9DE0018D9D3F
:10111000D00D1124C955DE4F4AAD5BAD6CAD7DAD30
:10112000495F5F4F6F4F7F4F487F052E000C660B66
:10113000770B88AD99AD092E000CAA0BBB0B04965A
:10114000A11DB11D841B950BA60BB70BC3DB8881BA
:1011500099818430910581F030F48130910549F016
:10116000029729F127C08630910551F0079721F0A9
:1011700021C01982188268D1C701B6010BD31AC0E9
:10118000CA5BDF4F8881998127E0289FF001299F62
:10119000F00D1124E95EFC4F81819281A381B4811D
:1011A0000196A11DB11D81839283A383B483C701DE
:1011B000B601A7DC8BE58C9DF0018D9DF00D11240F
:1011C000E955FE4F11821082812F33DF81E0DF91DC
:1011D000CF911F91FF90EF90DF90CF90BF90AF9095
:1011E0000895CF93DF93C82F21DFD82FCA3011F491
:1011F0008DE0D4D88C2FD2D88D2F1BDF81E0DF91EA
:10120000CF910895A1E5B0E0E7E0F9E01DC78E01B8
:10121000065A1F4FF801E190F1908F0121E530E06F
:1012200040E050E060E070E0CE0101968CD798017C
:10123000A70160E570E0CE0101968CD78E010F5FAB
:101240001F4FF80181918F01882311F0CADFF9CF78
:1012500081E0CF5ADF4FE6E013C70F931F93CF9380
:10126000DF9380E094E0A0E8BB270196A11DB11DAB
:10127000EC0190933A03809339032FEE38E03093DA
:101280003C0320933B03E3E3F3E0918380831982E3
:101290001882092E000CAA0BBB0B4FEE58E060E041
:1012A00070E08A019B01081B190B2A0B3B0B0A8378
:1012B0001B832C833D830283138324833583DF9137
:1012C000CF911F910F910895209102013091030158
:1012D0002031310544F5C9010296909303018093B2
:1012E0000201A9014F5F5F4F66E0629FF001639FBB
:1012F000F00D1124E35CFC4F538342838FEF9FEF8B
:101300009583848391838083649FF001659FF00DB2
:101310001124E35CFC4F9383828335832483118201
:101320001082C90108958FEF9FEF08958F929F92C9
:10133000AF92BF92EF92FF920F931F93CF93DF93E1
:101340004B015C018A01790171DED82F83E0881698
:101350009104A104B10420F08D2F6BDECFEF13C0F8
:1013600029E2289DC001299D900D112480539F4F93
:10137000FC0174960590F491E02DA701B801099540
:10138000C82F8D2F56DE8C2FDF91CF911F910F919B
:10139000FF90EF90BF90AF909F908F900895F8943A
:1013A0003FD83ED80E94C2018ECACF939C012450E0
:1013B00031092B303105F8F4C6E0C89FF001C99F10
:1013C000F00D1124E35CFC4F228133812430310580
:1013D00094F461DBC69FF001C79FF00D1124E35C1C
:1013E000FC4F2FEF3FEF3583248333832283462F37
:1013F000372F282F04C04FEF3FEF2FEF9FEF642FC1
:10140000732F822FCF910895643071058105910566
:10141000C8F42BE5269FF001279FF00D1124E95514
:10142000FE4F20813181232B69F022E030E03183AF
:10143000208340919D0350919E032281E1DC04D0E2
:1014400081E008958FEF0895CF92DF92EF92FF929F
:1014500080919F039091A003A091A103B091A2035A
:10146000181619061A061B0624F481E08093A303BC
:101470006BC0C090A301D090A401E090A501F090B2
:10148000A6018BE58C9DF0018D9DF00D1124E95591
:10149000FE4F80819181019729F52281338140910E
:1014A0009D0350919E0386E0849FD001859FB00DDF
:1014B0001124A35CBC4F12966D917C911397869F6B
:1014C000D001879FB00D1124A35CBC4F8D919C91DE
:1014D00082179307C8F182E090E091838083C7016F
:1014E000B6018EDC80919D0390919E035EDF609338
:1014F000A3017093A4018093A5019093A6012BE50D
:10150000269FD001279FB00D1124FD01E955FE4F04
:1015100041E050E05183408341E050E060E070E002
:1015200040939701509398016093990170939A01A9
:10153000BD0165557E4F2C9DC0012D9D900D112440
:1015400085559E4F0E946A01FF90EF90DF90CF90EB
:101550000895613071058105910531F062307105A2
:1015600081059105F1F03FC080919F039091A00308
:10157000A091A103B091A203AC01BD014F5F5F4FE9
:101580006F4F7F4F40939F035093A0036093A1033D
:101590007093A203892B8A2B8B2B19F51092A3032E
:1015A00020C080919F039091A003A091A103B091CE
:1015B000A203181619061A061B06ACF40197A10916
:1015C000B10980939F039093A003A093A103B093CC
:1015D000A203892B8A2B8B2B21F48091A3038111E9
:1015E00033DF81E008958FEF0895CF92DF92EF927D
:1015F000FF921F93CF93DF936B017C0117DD182FB0
:1016000084E0C816D104E104F10470F48BE58C9DEC
:10161000F0018D9DF00D1124E955FE4F80819181DF
:10162000009711F0059729F0812F03DD8FEF9FEFD1
:1016300009C0D281C381C701B601E6DE812FF9DC82
:101640008D2F9C2FDF91CF911F91FF90EF90DF9016
:10165000CF9008958F929F92AF92BF92CF92DF92D8
:10166000EF92FF92CF934B015C0169017A01DEDCBE
:10167000C82F84E088169104A104B10490F48BE58E
:10168000889DF001899DF00D1124E955FE4F808160
:101690009181009731F0DF01A05BBF4F2C91222395
:1016A00021F08C2FC6DC8FEF16C0E45BFF4FC082A9
:1016B000D182E282F38221E02C938330910529F0DC
:1016C000079731F4C501B40165D0C501B4019CDEB2
:1016D0008C2FAFDC81E0CF91FF90EF90DF90CF9027
:1016E000BF90AF909F908F900895CF92DF92EF922E
:1016F000FF92CF93DF9397FD33C06B017C01672B83
:10170000682B692B11F4C6D029C090DCD82F4091EA
:101710009501509196016091A3017091A40180916F
:10172000A5019091A6019601CCDBC82F8F3F19F43B
:101730008D2F7FDC16C08091A3019091A4012BE531
:10174000289FF001299FF00D1124E955FE4F84E0F8
:1017500090E09183808378DE8D2F6BDCC1E001C047
:10176000CFEF8C2FDF91CF91FF90EF90DF90CF9054
:1017700008956C3924EC720720E28207910540F449
:101780009B01AC01A8EEB3E049D4AFDF81E008953E
:101790008FEF0895CF92DF92EF92FF92CF936B017C
:1017A0007C0144DCC82F84E0C816D104E104F104B4
:1017B00088F48BE58C9DF0018D9DF00D1124E95589
:1017C000FE4F80819181009729F08430910531F09E
:1017D000079721F08C2F2DDC8FEF24C026E02C9D65
:1017E000D0012D9DB00D1124A35CBC4F12968D919C
:1017F0009C911397843091057CF4289FF001299FD8
:10180000F00D1124E35CFC4F208131818D919C917E
:10181000820F931F91838083C701B60172D98C2FE9
:1018200008DC81E0CF91FF90EF90DF90CF9008959A
:1018300087D908CCCF9361E070E080E090E089DE4A
:10184000C6E08091950190919601C89FF001C99FD3
:10185000F00D1124E35CFC4F2281338124303105EB
:1018600074F4C29FF001C39FF00D1124E35CFC4FA0
:1018700020813181232B19F498DDC6DDE2CF62E0AF
:1018800070E080E090E065DECF91089583EB91E019
:101890000AD0D3CBCF93CADBC82FD6DD8C2FC9DBC0
:1018A00081E0CF9108950895CF93DF93C82FD62F6D
:1018B000BDDBEC2FF0E0EC55FC4FD083BADBDF91C1
:1018C000CF910895CF93DF93C82FD0E0CC55DC4F54
:1018D000ADDB988119163CF0ACDB61E070E080E094
:1018E00090E003DFF5CF91509883A3DBDF91CF9198
:1018F0000895CF93C82F9ADBEC2FF0E0EC55FC4F06
:1019000090819F5F908395DBCF9108950F931F93F4
:1019100000E010E09801041715072607370764F464
:10192000DC01ED91CD010F5F1F4F2F4F3F4FE111B4
:10193000F2CFB801C90104C06FEF7FEF8FEF9FEFC7
:101940001F910F910895A6E0B0E0E8EAFCE070C3B3
:10195000182F9C831B0169017A0168DB082F40E185
:1019600050E060E070E0812F9C81D0DF4B015C0192
:1019700041E050E060E070E0C101C8DF2B013C01B4
:101980002FEF82169206A206B20649F16F3F7F4FF3
:101990008F4F9F4F21F153E0C516D104E104F104AC
:1019A000F0F48091A8039091A903A091AA03B091AB
:1019B000AB0384309105A105B1058CF419831C811A
:1019C0001A8325E1289FA001299F500D11245E83D1
:1019D0004D8320E030E040E050E0BA0104C0802FA9
:1019E00028DB8FEF42C0481559056A057B059CF43A
:1019F000E981FA811191FA83E983ED81FE81E20F99
:101A0000F31FE455FC4F10834F5F5F4F6F4F7F4FC5
:101A10002F5F3F4FE8CF14141504160417045CF42D
:101A2000F101208135E1389FF001399FF00D11243B
:101A3000E455FC4F208B25E1289FF001299FF00DF4
:101A40001124E455FC4FC18AD28AE38AF48A0196B4
:101A5000A11DB11D8093A8039093A903A093AA038D
:101A6000B093AB03802FE5DA81E02696E2E1FCC279
:101A7000A0E2B0E0EDE3FDE0DFC286E0E7E3F1E005
:101A8000DE015B9601900D928A95E1F71092A80312
:101A90001092A9031092AA031092AB038BE491E079
:101AA00002DF80EDA82E80E0B82E88E090E09C0157
:101AB000205D30404901DE015B968E010F5F1F4FB4
:101AC000C12CD12C760138018D91F80181938823A6
:101AD00039F03FEFC31AD30AE30AF30A8F01F4CFB8
:101AE000B4016A0D7B1D60537F4F4AE050E0CE0188
:101AF00041961AD3FE017196BFEFCB1ADB0AEB0AAF
:101B0000FB0A20E1C216D104E104F10464F48191DE
:101B10009FEB980F9A3108F4805ED8018D938D0168
:101B20008111EACF09C030E1C316D104E104F10408
:101B300019F081E791E00DC0F501259135914591AE
:101B400055916BE271E0C301FEDE8F3F19F486E927
:101B500091E0A9DEF9E2AF0EB11C2BE4A21621E060
:101B6000B20609F0A8CF2FEF3FEFA9016BE271E0B9
:101B700087E391E0E8DE81E0A096EEE079C24F9243
:101B80005F926F927F928F929F92AF92BF92DF92FD
:101B9000EF92FF920F931F93CF93DF9300D000D06B
:101BA0001F92CDB7DEB7E090A803F090A903009193
:101BB000AA031091AB03E982FA820B831C832CEAFF
:101BC00033E0812C912C5401E980FA800B811C8137
:101BD0008E149F04A006B106ACF47C01F901412CDF
:101BE000512C3201D70141914423C1F00FEFE01A8B
:101BF000F00A5C9145130AC01FEF411A510A610AAD
:101C0000710AF0CF6FEF7FEFCB0165C00FEF801A45
:101C1000900AA00AB00A2B5E3F4FD6CF7D83D62E06
:101C200040E150E060E070E071DE698385E1889D0D
:101C30008001899D100D112404541C4F40E150E097
:101C400060E070E0C80162DEA9812A2FAA0F330B81
:101C5000440B550B24193509460957092B013C0142
:101C6000B1E04B1A510861087108420E531E641E00
:101C7000751EE1E14E165104610471041CF62B013E
:101C80003C01D801ED2DFD8181E0481A5108610821
:101C9000710814141504160417041CF48D91819313
:101CA000F3CF12161306140615064CF4D7018D91C6
:101CB0007D0181932150310941095109F2CF85E11C
:101CC000889DF001899DF00D1124E455FC4F618938
:101CD0007289838994890F900F900F900F900F90C5
:101CE000DF91CF911F910F91FF90EF90DF90BF9008
:101CF000AF909F908F907F906F905F904F900895DE
:101D0000CF92DF92EF92FF92FB01C12CD12C760192
:101D1000C216D306E406F50664F46191DC016D9306
:101D2000CD01662341F0BFEFCB1ADB0AEB0AFB0AB9
:101D3000EFCF8FEF01C081E0FF90EF90DF90CF9069
:101D40000895A0E1B0E0E6EAFEE078C18B01490128
:101D50005A0120E130E040E050E0BC01CE010196A4
:101D6000CFDF8F3FF1F0C12CD12C76010DC020E1E7
:101D700030E040E050E0B801CE010196C1DF8FEFC6
:101D8000C81AD80AE80AF80A8091A8039091A90312
:101D9000A091AA03B091AB03C816D906EA06FB06C8
:101DA00014F08FEF0AC0B801CE010196E8DE681585
:101DB00079058A059B05D9F2862F6096ECE05AC119
:101DC000A0E1B0E0E5EEFEE041C1FC01CB018A01FB
:101DD0002591359145915591BE016F5F7F4FB1DFE0
:101DE000682F880F770B880B990B6F3F2FEF7207C7
:101DF0008207920731F09801AE014F5F5F4F96DA8C
:101E000001C08FEF6096E4E03DC1E0910401F091E4
:101E1000050180E4848384E882830895F6DF4AD054
:101E200061E080E041DD60E081E03EDD1F921F92D5
:101E30008DE391E09F938F931F928AE08F931F927F
:101E400080E48F9380ED9FE09F938F930E941C030B
:101E5000CCDB1F921F9281E491E09F938F931F929E
:101E600084E18F9381E08F931F9289EB9FE09F9392
:101E70008F930E941C03B9DB8DB79EB744960FB6B3
:101E8000F8949EBF0FBE8DBF61E070E080E090E0EF
:101E900070DC80E017DD86E491E021D0809166015E
:101EA000909167010196909367018093660181E0AC
:101EB00020DDEACFE0910601F0910701158287E667
:101EC000848386E0828388E181830895E09106011E
:101ED000F0910701908195FFFDCF86830895CF9300
:101EE000DF93EC018991882311F0F0DFFBCF8DE0C7
:101EF000EDDF8AE0EBDFDF91CF910895A0E0B0E065
:101F0000E3E8FFE09DC0AC018B01ADB6BEB68DB776
:101F10009EB7861B970B0FB6F8949EBF0FBE8DBF62
:101F2000EDB7FEB731967F019B01EAE0F0E01216B3
:101F3000130664F4CA01BF0142D0AB01215031093C
:101F4000D701A20FB31F805D8C93F1CF6701C6014B
:101F50008E199F09801791072CF4F60181916F016A
:101F6000B5DFF5CF0FB6F894BEBE0FBEADBEEAE04A
:101F700083C081E0A7DC82E591E0B1DF809166015A
:101F80009091670164E070E0B9DF8AE291E0A7DF39
:101F900080E0AFDC62E070E080E090E0EADBE9CF77
:101FA00080E284B968EC70E080E090E09EDB2D9ADE
:101FB00068EC70E080E090E098DB2D98F3CF97FB21
:101FC000072E16F4009406D077FD08D068D007FCE1
:101FD00005D03EF4909581959F4F08957095619539
:101FE0007F4F0895052E97FB16F400940FD057FDF0
:101FF00005D069D007FC02D046F408C05095409542
:10200000309521953F4F4F4F5F4F089590958095A4
:10201000709561957F4F8F4F9F4F089576D0A59F04
:10202000900DB49F900DA49F800D911D11240895D3
:102030002F923F924F925F926F927F928F929F92D8
:10204000AF92BF92CF92DF92EF92FF920F931F93C6
:10205000CF93DF93CDB7DEB7CA1BDB0B0FB6F89477
:10206000DEBF0FBECDBF09942A88398848885F84B7
:102070006E847D848C849B84AA84B984C884DF8028
:10208000EE80FD800C811B81AA81B981CE0FD11D0C
:102090000FB6F894DEBF0FBECDBFED010895AA1BA9
:1020A000BB1B51E107C0AA1FBB1FA617B70710F043
:1020B000A61BB70B881F991F5A95A9F78095909575
:1020C000BC01CD010895A1E21A2EAA1BBB1BFD0184
:1020D0000DC0AA1FBB1FEE1FFF1FA217B307E40707
:1020E000F50720F0A21BB30BE40BF50B661F771F5F
:1020F000881F991F1A9469F760957095809590953F
:102100009B01AC01BD01CF010895A29FB001B39F17
:10211000C001A39F700D811D1124911DB29F700DF0
:10212000811D1124911D0895FB01DC014150504097
:1021300048F005900D920020C9F701C01D92415052
:102140005040E0F70895DC0101C06D9341505040CC
:10215000E0F70895AEE0B0E0EFEAF0E177CF8C0170
:10216000FA0186E08C831A83098377FF02C060E05E
:1021700070E8CB0101979E838D83A901BF01CE0139
:10218000019611D04D815E8157FD0AC02F8138859F
:10219000421753070CF49A01F801E20FF31F108263
:1021A0002E96E4E06FCFABE0B0E0E8EDF0E140CF99
:1021B0006C017B018A01FC0117821682838181FFF9
:1021C000BFC1CE0101963C01F6019381F70193FD59
:1021D000859193FF81917F01882309F4ADC18532F8
:1021E00039F493FD859193FF81917F01853221F42C
:1021F000B60190E0C0D1E8CF912C212C312CFFE129
:10220000F315D8F08B3279F038F4803279F08332DC
:10221000A1F4232D20611DC08D3261F0803369F45B
:10222000232D216016C0832D8260382EE32DE460BB
:102230003E2E2AC0F32DF8601DC037FC2DC020EDC6
:10224000280F2A3040F08E32B9F436FC75C1232DA8
:102250002064322E19C036FE06C08AE0989E200DFA
:102260001124922E11C0EAE02E9E200D1124222E60
:10227000F32DF0623F2E08C08C3621F4832D806848
:10228000382E02C0883641F4F70193FD859193FF03
:1022900081917F018111B3CF982F9F7D9554933009
:1022A00028F40C5F1F4F9FE399830DC0833631F0F4
:1022B000833771F0833509F055C020C0F801808163
:1022C00089830E5F1F4F88248394912C530112C081
:1022D0002801F2E04F0E511CF801A080B18036FEBB
:1022E00003C0692D70E002C06FEF7FEFC50138D1E8
:1022F0004C018201F32DFF773F2E15C0280122E00B
:10230000420E511CF801A080B18036FE03C0692D39
:1023100070E002C06FEF7FEFC50117D14C01F32DC4
:10232000F0683F2E820133FC19C0822D90E08816A0
:102330009906A0F4B60180E290E01DD12A94F5CF71
:10234000F50137FC859137FE81915F01B60190E080
:1023500012D121102A9421E0821A9108811491044B
:1023600079F7E1C0843611F0893639F5F80137FE86
:1023700007C060817181828193810C5F1F4F08C00B
:1023800060817181072E000C880B990B0E5F1F4F27
:10239000F32DFF763F2E97FF09C09095809570959D
:1023A00061957F4F8F4F9F4FF0683F2E2AE030E0BE
:1023B000A3011DD1882E861844C0853731F4232D02
:1023C0002F7EB22E2AE030E025C0932D997FB92EC2
:1023D0008F36C1F018F4883579F0AEC0803719F027
:1023E000883721F0A9C0E92FE061BE2EB4FE0DC0F0
:1023F000FB2DF460BF2E09C034FE0AC0292F2660D1
:10240000B22E06C028E030E005C020E130E002C076
:1024100020E132E0F801B7FE07C06081718182815E
:1024200093810C5F1F4F06C06081718180E090E056
:102430000E5F1F4FA301DBD0882E8618FB2DFF7780
:102440003F2E36FE0DC0232D2E7FA22E891458F468
:1024500034FE0BC032FC09C0832D8E7EA82E05C031
:10246000B82CA32C03C0B82C01C0B92CA4FE0FC0FB
:10247000FE01E80DF11D8081803321F49A2D997EB3
:10248000A92E09C0A2FE06C0B394B39404C08A2D3D
:10249000867809F0B394A3FC10C0A0FE06C0B21465
:1024A00080F4280C922C9B180DC0B21458F4B6017D
:1024B00080E290E060D0B394F8CFB21418F42B18F7
:1024C00002C0982C212CA4FE0FC0B60180E390E03E
:1024D00052D0A2FE16C0A1FC03C088E790E002C063
:1024E00088E590E0B6010CC08A2D867851F0A1FEF7
:1024F00002C08BE201C080E2A7FC8DE2B60190E051
:102500003AD0891430F4B60180E390E034D09A9444
:10251000F8CF8A94F301E80DF11D8081B60190E0B7
:102520002AD08110F6CF222009F44ECEB60180E2E7
:1025300090E021D02A94F7CFF6018681978102C0DE
:102540008FEF9FEF2B96E2E18FCDFC01059061505C
:1025500070400110D8F7809590958E0F9F1F0895B9
:10256000FC016150704001900110D8F78095909562
:102570008E0F9F1F08950F931F93CF93DF93FB013F
:10258000238121FD03C08FEF9FEF2CC022FF16C0D7
:1025900046815781248135814217530744F4A08135
:1025A000B1819D012F5F3F4F318320838C93268122
:1025B00037812F5F3F4F3783268314C08B01EC0197
:1025C000FB010084F185E02D0995892BE1F6D80106
:1025D00016968D919C911797019617969C938E93C2
:1025E0001697CE01DF91CF911F910F910895FA01B7
:1025F000AA27283051F1203181F1E8946F936E7F42
:102600006E5F7F4F8F4F9F4FAF4FB1E03ED0B4E032
:102610003CD0670F781F891F9A1FA11D680F791F73
:102620008A1F911DA11D6A0F711D811D911DA11D84
:1026300020D009F468943F912AE0269F1124301994
:10264000305D3193DEF6CF010895462F4770405D2F
:102650004193B3E00FD0C9F7F6CF462F4F70405DDE
:102660004A3318F0495D31FD4052419302D0A9F739
:10267000EACFB4E0A6959795879577956795BA9533
:10268000C9F700976105710508959B01AC010A2EF9
:1026900006945795479537952795BA95C9F7620FD0
:0A26A000731F841F951FA01D0895ED
:1026AA00C00004007800C000201B5B306D1B5B3249
:1026BA004A1B5B3B48000A467265654D454D3A2503
:1026CA006420286279746573290A0A006E756C6C35
:1026DA0070006D61696E002F6465762F006C656409
:1026EA0000636F6D6D004C6F2063616D62696F21CD
:1026FA000A00455354412043414D424941444F3A0F
:02270A002000AD
:00000001FF
