:100000000C9434000C9449000C9449000C94490061
:100010000C9449000C9449000C9449000C9449003C
:100020000C9449000C9449000C9449000C9449002C
:100030000C9449000C9449000C9449000C9449001C
:100040000C9449000C9449000C9449000C9449000C
:100050000C9449000C9449000C9449000C944900FC
:100060000C9449000C94490011241FBECFEFD8E036
:10007000DEBFCDBF11E0A0E0B1E0E0ECF1E002C0F6
:1000800005900D92A830B107D9F70E949B000C94FF
:10009000DE000C9400000F931F93CF93DF9300D0EA
:1000A00000D0CDB7DEB79B01AC01A6E9B0E00E945D
:1000B000C40019821A821B821C8209811A812B8139
:1000C0003C8106171707280739076CF409811A8144
:1000D0002B813C810F5F1F4F2F4F3F4F09831A83A6
:1000E0002B833C83EACF0F900F900F900F90DF91FE
:1000F000CF911F910F9108958130910519F00297CA
:1001000069F00895E0910401F09105018DEF80837D
:10011000E0910001F09101018FEB0BC0E09104012F
:10012000F091050188EE8083E0910001F0910101DA
:100130008FE780830895E0910601F09107018FE336
:100140008083E0910201F09103018CEF8083DDEF69
:10015000CFEBE0910401F0910501D083E091000123
:10016000F0910101C08368EE73E080E090E00E94AE
:100170004B0082E090E00E947C0068EE73E080E03B
:1001800090E00E944B00E5CF0E94CF00A59F900D0C
:10019000B49F900DA49F800D911D11240895A29FDE
:1001A000B001B39FC001A39F700D811D1124911D4B
:1001B000B29F700D811D1124911D0895F894FFCFF9
:0801C0002B002A002500240099
:00000001FF
