:100000000C9434000C9449000C9449000C94490061
:100010000C9449000C9449000C9449000C9449003C
:100020000C9449000C9449000C9449000C9449002C
:100030000C9449000C9449000C9449000C9449001C
:100040000C9449000C9449000C9449000C9449000C
:100050000C9449000C9449000C9449000C944900FC
:100060000C9449000C94490011241FBECFEFD8E036
:10007000DEBFCDBF11E0A0E0B1E0E6E5F9E002C0EF
:1000800005900D92A432B107D9F70E947A010C9421
:10009000A9040C940000CF93DF9300D000D0CDB71B
:1000A000DEB719821A821B821C8224EBAC01249FCA
:1000B000C001259F900D1124A0E0B0E049815A8134
:1000C0006B817C81481759076A077B076CF449816B
:1000D0005A816B817C814F5F5F4F6F4F7F4F4983A8
:1000E0005A836B837C83EACF0F900F900F900F9011
:1000F000DF91CF910895CF93DF93EC018AE091E0F7
:100100000E94F10064E070E0CE010E941C01CE016B
:100110000E94AC0088EE93E0DF91CF910C944B00ED
:10012000E0910001F0910101808182608083E09183
:100130000401F09105018081806A80838081826062
:10014000808381818861818381818260818380E174
:1001500097E2978386830895E0910401F091050169
:100160009187808708959C01E0910401F091050139
:100170008436910519F48681978112C0892B71F01C
:100180008681978164E670E00E949701269FC001F6
:10019000279F900D369F900D112402C080E090E0C3
:1001A000938782870895E0910601F09107011582F7
:1001B00087E6848386E0828388E181830895E091E5
:1001C0000601F0910701908195FFFDCF8683089588
:1001D000E0910601F0910701808187FFFDCF8681C4
:1001E0000895EF92FF920F931F93CF93DF938C01AB
:1001F000FC0101900020E9F73197EF01C81BD90BF2
:100200007C01C701801B910B8C179D0734F4F7010B
:1002100081917F010E94DF00F4CFDF91CF911F9188
:100220000F91FF90EF900895E0910601F091070182
:100230008081807890E00895CF92DF92EF92FF92D4
:100240000F931F93CF93DF93CDB7DEB7CDB6DEB656
:100250002DB73EB7261B370B0FB6F8943EBF0FBE27
:100260002DBFEDB7FEB731967F019F938F9381E24B
:1002700091E09F938F93FF92EF930E94BF018701BC
:100280000F900F900F900F900F900F90F8018191A9
:100290008F01882319F00E94DF00F8CF0FB6F89481
:1002A000DEBE0FBECDBEDF91CF911F910F91FF90AB
:1002B000EF90DF90CF900895E0910801F09109014F
:1002C00080E4848384E882830895893090F4E09107
:1002D0000801F09109019481892B848382818064D3
:1002E0008283828186FDFDCF8081218190E0922BE7
:1002F000089508950E9490000E94D3000E945C011E
:100300000AE61FEFC4E182E00E946501B8010E9485
:10031000AB01C69FC001C79F900D112488569C4F0A
:100320000E947B0088EE93E00E944B00ECCFAA1B5A
:10033000BB1B51E107C0AA1FBB1FA617B70710F0D0
:10034000A61BB70B881F991F5A95A9F78095909502
:10035000BC01CD01089597FB072E16F4009407D039
:1003600077FD09D00E94970107FC05D03EF49095D7
:1003700081959F4F0895709561957F4F0895AEE0E8
:10038000B0E0E5ECF1E00C9480040D891E8986E074
:100390008C831A8309838FEF9FE79E838D83AE0141
:1003A000475E5F4F6F89788DCE0101960E94E10113
:1003B000EF81F885E00FF11F10822E96E4E00C9497
:1003C0009C04ABE0B0E0E7EEF1E00C9472046C0149
:1003D0007B018A01FC0117821682838181FFCCC1D7
:1003E000CE0101963C01F6019381F70193FD8591C1
:1003F00093FF81917F01882309F4BAC1853239F4D2
:1004000093FD859193FF81917F01853229F4B60197
:1004100090E00E94D803E7CF912C212C312CFFE1F2
:10042000F315D8F08B3279F038F4803279F08332DA
:10043000A1F4232D20611DC08D3261F0803369F459
:10044000232D216016C0832D8260382EE32DE460B9
:100450003E2E2AC0F32DF8601DC037FC2DC020EDC4
:10046000280F2A3040F08E32B9F436FC81C1232D9A
:100470002064322E19C036FE06C08AE0989E200DF8
:100480001124922E11C0EAE02E9E200D1124222E5E
:10049000F32DF0623F2E08C08C3621F4832D806846
:1004A000382E02C0883641F4F70193FD859193FF01
:1004B00081917F018111B3CF982F9F7D9554933007
:1004C00028F40C5F1F4F9FE399830DC0833631F0F2
:1004D000833771F0833509F059C021C0F80180815C
:1004E00089830E5F1F4F88248394912C530113C07E
:1004F0002801F2E04F0E511CF801A080B18036FEB9
:1005000003C0692D70E002C06FEF7FEFC5010E944C
:10051000CD034C018201F32DFF773F2E16C0280139
:1005200022E0420E511CF801A080B18036FE03C0CB
:10053000692D70E002C06FEF7FEFC5010E94C2031A
:100540004C01F32DF0683F2E820133FC1BC0822D3D
:1005500090E088169906B0F4B60180E290E00E941F
:10056000D8032A94F4CFF50137FC859137FE8191A9
:100570005F01B60190E00E94D80321102A9421E087
:10058000821A91088114910471F7E8C0843611F041
:10059000893641F5F80137FE07C06081718182819B
:1005A00093810C5F1F4F08C060817181072E000C82
:1005B000880B990B0E5F1F4FF32DFF763F2E97FF91
:1005C00009C090958095709561957F4F8F4F9F4F93
:1005D000F0683F2E2AE030E0A3010E941404882E28
:1005E000861845C0853731F4232D2F7EB22E2AE0A0
:1005F00030E025C0932D997FB92E8F36C1F018F4C5
:10060000883579F0B5C0803719F0883721F0B0C04F
:10061000E92FE061BE2EB4FE0DC0FB2DF460BF2EAD
:1006200009C034FE0AC0292F2660B22E06C028E079
:1006300030E005C020E130E002C020E132E0F80106
:10064000B7FE07C060817181828193810C5F1F4F6B
:1006500006C06081718180E090E00E5F1F4FA301B2
:100660000E941404882E8618FB2DFF773F2E36FE3D
:100670000DC0232D2E7FA22E891458F434FE0BC0FA
:1006800032FC09C0832D8E7EA82E05C0B82CA32C69
:1006900003C0B82C01C0B92CA4FE0FC0FE01E80DA8
:1006A000F11D8081803321F49A2D997EA92E09C0F5
:1006B000A2FE06C0B394B39404C08A2D867809F0D4
:1006C000B394A3FC11C0A0FE06C0B21488F4280C99
:1006D000922C9B180EC0B21460F4B60180E290E038
:1006E0000E94D803B394F7CFB21418F42B1802C0A9
:1006F000982C212CA4FE10C0B60180E390E00E944B
:10070000D803A2FE17C0A1FC03C088E790E002C096
:1007100088E590E0B6010CC08A2D867859F0A1FEDC
:1007200002C08BE201C080E2A7FC8DE2B60190E03E
:100730000E94D803891438F4B60180E390E00E9447
:10074000D8039A94F7CF8A94F301E80DF11D8081C4
:10075000B60190E00E94D8038110F5CF222009F461
:1007600042CEB60180E290E00E94D8032A94F6CFF0
:10077000F6018681978102C08FEF9FEF2B96E2E111
:100780000C948E04FC010590615070400110D8F764
:10079000809590958E0F9F1F0895FC0161507040C9
:1007A00001900110D8F7809590958E0F9F1F0895A6
:1007B0000F931F93CF93DF93FB01238121FD03C090
:1007C0008FEF9FEF2CC022FF16C0468157812481F6
:1007D00035814217530744F4A081B1819D012F5FF9
:1007E0003F4F318320838C93268137812F5F3F4F8A
:1007F0003783268314C08B01EC01FB010084F18553
:10080000E02D0995892BE1F6D80116968D919C91E2
:100810001797019617969C938E931697CE01DF91AA
:10082000CF911F910F910895FA01AA27283051F115
:10083000203181F1E8946F936E7F6E5F7F4F8F4F11
:100840009F4FAF4FB1E03ED0B4E03CD0670F781F70
:10085000891F9A1FA11D680F791F8A1F911DA11D55
:100860006A0F711D811D911DA11D20D009F468948E
:100870003F912AE0269F11243019305D3193DEF636
:10088000CF010895462F4770405D4193B3E00FD0EC
:10089000C9F7F6CF462F4F70405D4A3318F0495DD7
:1008A00031FD4052419302D0A9F7EACFB4E0A695BA
:1008B0009795879577956795BA95C9F700976105DC
:1008C000710508959B01AC010A2E06945795479532
:1008D00037952795BA95C9F7620F731F841F951F27
:1008E000A01D08952F923F924F925F926F927F9238
:1008F0008F929F92AF92BF92CF92DF92EF92FF9230
:100900000F931F93CF93DF93CDB7DEB7CA1BDB0BDB
:100910000FB6F894DEBF0FBECDBF09942A88398880
:1009200048885F846E847D848C849B84AA84B98487
:10093000C884DF80EE80FD800C811B81AA81B98193
:10094000CE0FD11D0FB6F894DEBF0FBECDBFED01A7
:060950000895F894FFCFAA
:1009560024006F008000C00078000A0D20736572C5
:10096600766F20612076656C6F63696461643A20F6
:0409760000256400F4
:00000001FF
